:08000000803102288731FD2F39
:100E38007908F3007808F20008007908F1007808CA
:100E4800F00008007908F7007808F60008008731F4
:100E58006F2787312E2F80310228603045018D00A1
:100E68008F019101053093009201080041010C1097
:100E78000B140030F8000030F9008731262787313D
:100E8800080080305001A2003F30A100C030A0000F
:100E98002F08FC390138AF00080080305001A50048
:100EA8003F30A400C030A3002F08F3390438AF0046
:100EB80008000130470190008F019101FF308D003B
:100EC8008C010030F4000030F50041010E11803033
:100ED80047018E0008008731312787318731C427C1
:100EE800873187315D278731873188278731873177
:100EF800A4278731873145278731873151278731A3
:100F080087313A27873108004D0196010E308D0050
:100F18002F308E008F01900191010230920008302D
:100F2800930094019501970182308C000030F800FD
:100F38000030F90087311C27873141011011080062
:100F480001304D0196000E308D0030308E0001309A
:100F58008F0001309000013091000230920008307B
:100F6800930094019501970182308C000030F800BD
:100F78000030F9008731212787314101901108009D
:100F88004001980199019A0137309200F03093009E
:100F9800FC30940007307D018C00F0309600FC3066
:100FA800A00030308D009701A1018E019801A201A7
:100FB80037308F00F0309900FF30A3000F309000D9
:100FC800F0309A00FC30A40004307C01BE000530EB
:100FD800BD0002307B019D0001309C007D01910124
:100FE800920193019B019C019D01A501A601A70106
:080FF8000800400187312B2F96
:020000040001F9
:0A000E008C3FFF3F9F3FFF3FFF3F85
:00000001FF
